{
  "transactions": [
    {
      "hash": "0x74b31a90aa1e9b631013579a3a5e38b58ca3d0b061b9ba26ac8f9d1d81d4ae53",
      "transactionType": "CALL",
      "contractName": null,
      "contractAddress": "0xc31104eb98e8c575996cc4140ef91350755e8d21",
      "function": "transfer(address,uint256)",
      "arguments": [
        "0x503cdF29bAe1AA462dbFEf3fd72E78Bc3E64aEbb",
        "1000000000000000000000"
      ],
      "transaction": {
        "from": "0x84ba56191fb11bdbb9c0124e0179830651072295",
        "to": "0xc31104eb98e8c575996cc4140ef91350755e8d21",
        "gas": "0x11995",
        "value": "0x0",
        "input": "0xa9059cbb000000000000000000000000503cdf29bae1aa462dbfef3fd72e78bc3e64aebb00000000000000000000000000000000000000000000003635c9adc5dea00000",
        "nonce": "0x14",
        "chainId": "0xaa36a7"
      },
      "additionalContracts": [],
      "isFixedGasLimit": false
    },
    {
      "hash": "0xba91c81a21c01431c61ebd67f7546c1bf77e01aa1a5b42f7290755d73ff7f6bc",
      "transactionType": "CALL",
      "contractName": null,
      "contractAddress": "0x0b31aa50b02b77699eac638553251169ebbc7629",
      "function": "transfer(address,uint256)",
      "arguments": [
        "0x503cdF29bAe1AA462dbFEf3fd72E78Bc3E64aEbb",
        "1000000000000000000000"
      ],
      "transaction": {
        "from": "0x84ba56191fb11bdbb9c0124e0179830651072295",
        "to": "0x0b31aa50b02b77699eac638553251169ebbc7629",
        "gas": "0x11995",
        "value": "0x0",
        "input": "0xa9059cbb000000000000000000000000503cdf29bae1aa462dbfef3fd72e78bc3e64aebb00000000000000000000000000000000000000000000003635c9adc5dea00000",
        "nonce": "0x15",
        "chainId": "0xaa36a7"
      },
      "additionalContracts": [],
      "isFixedGasLimit": false
    }
  ],
  "receipts": [
    {
      "status": "0x1",
      "cumulativeGasUsed": "0xd8a307",
      "logs": [
        {
          "address": "0xc31104eb98e8c575996cc4140ef91350755e8d21",
          "topics": [
            "0xddf252ad1be2c89b69c2b068fc378daa952ba7f163c4a11628f55a4df523b3ef",
            "0x00000000000000000000000084ba56191fb11bdbb9c0124e0179830651072295",
            "0x000000000000000000000000503cdf29bae1aa462dbfef3fd72e78bc3e64aebb"
          ],
          "data": "0x00000000000000000000000000000000000000000000003635c9adc5dea00000",
          "blockHash": "0x38f6e9cd5e0457cf12eeedb829cd090b4e038cb7d45646e307f75a56353a1a8b",
          "blockNumber": "0x81bf73",
          "blockTimestamp": "0x68456274",
          "transactionHash": "0x74b31a90aa1e9b631013579a3a5e38b58ca3d0b061b9ba26ac8f9d1d81d4ae53",
          "transactionIndex": "0x93",
          "logIndex": "0xbf",
          "removed": false
        }
      ],
      "logsBloom": "0x00000000000000000000000000000000000000000000000000000000000000000000000000000000000000000000000000000000000080000000004000000000000000000000000000001008000000000000000000000000000000000000000000000008000000000000000000000000000000000000000000000010000000000000000000000000000000000000000000000000100000000000000000000000000000000400000000000000000000000000000000000000000000000000000000000002000000000000000000000000000000000000000000000000080000000000000000000000000000000000000000000000008000000000000000000000",
      "type": "0x2",
      "transactionHash": "0x74b31a90aa1e9b631013579a3a5e38b58ca3d0b061b9ba26ac8f9d1d81d4ae53",
      "transactionIndex": "0x93",
      "blockHash": "0x38f6e9cd5e0457cf12eeedb829cd090b4e038cb7d45646e307f75a56353a1a8b",
      "blockNumber": "0x81bf73",
      "gasUsed": "0xcbdd",
      "effectiveGasPrice": "0xf424d",
      "from": "0x84ba56191fb11bdbb9c0124e0179830651072295",
      "to": "0xc31104eb98e8c575996cc4140ef91350755e8d21",
      "contractAddress": null
    },
    {
      "status": "0x1",
      "cumulativeGasUsed": "0xa2e0f7",
      "logs": [
        {
          "address": "0x0b31aa50b02b77699eac638553251169ebbc7629",
          "topics": [
            "0xddf252ad1be2c89b69c2b068fc378daa952ba7f163c4a11628f55a4df523b3ef",
            "0x00000000000000000000000084ba56191fb11bdbb9c0124e0179830651072295",
            "0x000000000000000000000000503cdf29bae1aa462dbfef3fd72e78bc3e64aebb"
          ],
          "data": "0x00000000000000000000000000000000000000000000003635c9adc5dea00000",
          "blockHash": "0xf5aafeb3e8ca6fd94c0145fc5d7fa97fb954de573071f8b2b771bf868eda53d9",
          "blockNumber": "0x81bf74",
          "blockTimestamp": "0x68456280",
          "transactionHash": "0xba91c81a21c01431c61ebd67f7546c1bf77e01aa1a5b42f7290755d73ff7f6bc",
          "transactionIndex": "0x5d",
          "logIndex": "0x8c",
          "removed": false
        }
      ],
      "logsBloom": "0x00000000000000000000000000000000000000000000000000000000000000000000000000000000000000000000000000000000000080000000004000000000000000000000000000001008080000000000000000000000000000000000000000000000000000000000000000000000000000000000000000000010000000000000000000000000000000000000000000000000000000000000000000000000000000000400000000000000000000100000000000000000000000000000000000000002000000000000000000000000000000000000000000000000080000000000000000000000020000000000000000000000008000000000000000000000",
      "type": "0x2",
      "transactionHash": "0xba91c81a21c01431c61ebd67f7546c1bf77e01aa1a5b42f7290755d73ff7f6bc",
      "transactionIndex": "0x5d",
      "blockHash": "0xf5aafeb3e8ca6fd94c0145fc5d7fa97fb954de573071f8b2b771bf868eda53d9",
      "blockNumber": "0x81bf74",
      "gasUsed": "0xcbdd",
      "effectiveGasPrice": "0xf424d",
      "from": "0x84ba56191fb11bdbb9c0124e0179830651072295",
      "to": "0x0b31aa50b02b77699eac638553251169ebbc7629",
      "contractAddress": null
    }
  ],
  "libraries": [],
  "pending": [],
  "returns": {},
  "timestamp": 1749377665,
  "chain": 11155111,
  "commit": "fad21a7"
}