{
  "transactions": [
    {
      "hash": "0x671f9d412b9901ffc029411adbce28882b80e984687b6cc0d17b779ff167abd0",
      "transactionType": "CALL",
      "contractName": null,
      "contractAddress": "0x0b0e389359457599ebbc9ac491bd744ada85910a",
      "function": "transfer(address,uint256)",
      "arguments": [
        "0x503cdF29bAe1AA462dbFEf3fd72E78Bc3E64aEbb",
        "1000000000000000000000"
      ],
      "transaction": {
        "from": "0x84ba56191fb11bdbb9c0124e0179830651072295",
        "to": "0x0b0e389359457599ebbc9ac491bd744ada85910a",
        "gas": "0x10d08",
        "value": "0x0",
        "input": "0xa9059cbb000000000000000000000000503cdf29bae1aa462dbfef3fd72e78bc3e64aebb00000000000000000000000000000000000000000000003635c9adc5dea00000",
        "nonce": "0xd",
        "chainId": "0x66eee"
      },
      "additionalContracts": [],
      "isFixedGasLimit": false
    }
  ],
  "receipts": [
    {
      "status": "0x1",
      "cumulativeGasUsed": "0x716ac",
      "logs": [
        {
          "address": "0x0b0e389359457599ebbc9ac491bd744ada85910a",
          "topics": [
            "0xddf252ad1be2c89b69c2b068fc378daa952ba7f163c4a11628f55a4df523b3ef",
            "0x00000000000000000000000084ba56191fb11bdbb9c0124e0179830651072295",
            "0x000000000000000000000000503cdf29bae1aa462dbfef3fd72e78bc3e64aebb"
          ],
          "data": "0x00000000000000000000000000000000000000000000003635c9adc5dea00000",
          "blockHash": "0x8bfe14bffff5688527dd50f5f84f21f91ee932b9175c52db0d3be757d33be953",
          "blockNumber": "0x99e2ea7",
          "transactionHash": "0x671f9d412b9901ffc029411adbce28882b80e984687b6cc0d17b779ff167abd0",
          "transactionIndex": "0x4",
          "logIndex": "0xe",
          "removed": false
        }
      ],
      "logsBloom": "0x00000000000000000000000000000000000000000000004000000000000000000000000000000000000000000000000000008000000080000000004000000000000000000000000000001008000000000000000000000000000000000000000000000000000000000000000000000000000000000000000000000010000000000000000000000000000000000000000000000000000000000000000000000000000000000400000000000000000000000000000000000000000000000000000000000002008000000000000000000000000000000000000000000000080000000000000000000000000000000000000000000000008000000000000000000000",
      "type": "0x2",
      "transactionHash": "0x671f9d412b9901ffc029411adbce28882b80e984687b6cc0d17b779ff167abd0",
      "transactionIndex": "0x4",
      "blockHash": "0x8bfe14bffff5688527dd50f5f84f21f91ee932b9175c52db0d3be757d33be953",
      "blockNumber": "0x99e2ea7",
      "gasUsed": "0xcbdd",
      "effectiveGasPrice": "0x5f5e100",
      "from": "0x84ba56191fb11bdbb9c0124e0179830651072295",
      "to": "0x0b0e389359457599ebbc9ac491bd744ada85910a",
      "contractAddress": null,
      "gasUsedForL1": "0x0",
      "l1BlockNumber": "0x81bd49",
      "timeboosted": false
    }
  ],
  "libraries": [],
  "pending": [],
  "returns": {},
  "timestamp": 1749371021,
  "chain": 421614,
  "commit": "fad21a7"
}