{
  "transactions": [
    {
      "hash": "0x3ca9386733208dc3433facda83732958c8a8bdcb1ee6f6dd884ea1e72380ba9a",
      "transactionType": "CALL",
      "contractName": null,
      "contractAddress": "0xbd81221be47302f02c33739d7a207e58c7787d18",
      "function": "transfer(address,uint256)",
      "arguments": [
        "0x503cdF29bAe1AA462dbFEf3fd72E78Bc3E64aEbb",
        "1000000000000000000000"
      ],
      "transaction": {
        "from": "0x84ba56191fb11bdbb9c0124e0179830651072295",
        "to": "0xbd81221be47302f02c33739d7a207e58c7787d18",
        "gas": "0x10d08",
        "value": "0x0",
        "input": "0xa9059cbb000000000000000000000000503cdf29bae1aa462dbfef3fd72e78bc3e64aebb00000000000000000000000000000000000000000000003635c9adc5dea00000",
        "nonce": "0xb",
        "chainId": "0x66eee"
      },
      "additionalContracts": [],
      "isFixedGasLimit": false
    }
  ],
  "receipts": [
    {
      "status": "0x1",
      "cumulativeGasUsed": "0x48aeb",
      "logs": [
        {
          "address": "0xbd81221be47302f02c33739d7a207e58c7787d18",
          "topics": [
            "0xddf252ad1be2c89b69c2b068fc378daa952ba7f163c4a11628f55a4df523b3ef",
            "0x00000000000000000000000084ba56191fb11bdbb9c0124e0179830651072295",
            "0x000000000000000000000000503cdf29bae1aa462dbfef3fd72e78bc3e64aebb"
          ],
          "data": "0x00000000000000000000000000000000000000000000003635c9adc5dea00000",
          "blockHash": "0xf40047205b2915aace25c08d229463faf6a58fac94db119d513d499d532c01b5",
          "blockNumber": "0x99e091d",
          "transactionHash": "0x3ca9386733208dc3433facda83732958c8a8bdcb1ee6f6dd884ea1e72380ba9a",
          "transactionIndex": "0x4",
          "logIndex": "0x8",
          "removed": false
        }
      ],
      "logsBloom": "0x00000000000000000000000000000000000000000000000000000000000000000000000000000000000000000000000000000000000080000000004000000001000000000000000000001008000000000000000000000000000000000000000000000000000000000000000000000000000000000000000000000010000000000000000000000000000000000000000000000000000000000000000000000000000000004400000000000000000000000000000001000000000000000000000000000002000000000000000000000000000000000000000000000000080000000000000000000000000000000000000000000000008000000000000000000000",
      "type": "0x2",
      "transactionHash": "0x3ca9386733208dc3433facda83732958c8a8bdcb1ee6f6dd884ea1e72380ba9a",
      "transactionIndex": "0x4",
      "blockHash": "0xf40047205b2915aace25c08d229463faf6a58fac94db119d513d499d532c01b5",
      "blockNumber": "0x99e091d",
      "gasUsed": "0xcbdd",
      "effectiveGasPrice": "0x5f5e100",
      "from": "0x84ba56191fb11bdbb9c0124e0179830651072295",
      "to": "0xbd81221be47302f02c33739d7a207e58c7787d18",
      "contractAddress": null,
      "gasUsedForL1": "0x0",
      "l1BlockNumber": "0x81bc81",
      "timeboosted": false
    }
  ],
  "libraries": [],
  "pending": [],
  "returns": {},
  "timestamp": 1749368613,
  "chain": 421614,
  "commit": "fad21a7"
}